{
    "_format": "hh-sol-artifact-1",
    "contractName": "UnitTrust",
    "sourceName": "contracts/UnitTrust.sol",
    "abi": [
        {
            "anonymous": false,
            "inputs": [
                {
                    "indexed": false,
                    "internalType": "address",
                    "name": "previousAdmin",
                    "type": "address"
                },
                {
                    "indexed": false,
                    "internalType": "address",
                    "name": "newAdmin",
                    "type": "address"
                }
            ],
            "name": "AdminChanged",
            "type": "event"
        },
        {
            "anonymous": false,
            "inputs": [
                {
                    "indexed": true,
                    "internalType": "address",
                    "name": "beacon",
                    "type": "address"
                }
            ],
            "name": "BeaconUpgraded",
            "type": "event"
        },
        {
            "anonymous": false,
            "inputs": [
                {
                    "indexed": false,
                    "internalType": "uint8",
                    "name": "version",
                    "type": "uint8"
                }
            ],
            "name": "Initialized",
            "type": "event"
        },
        {
            "anonymous": false,
            "inputs": [
                {
                    "indexed": true,
                    "internalType": "address",
                    "name": "previousOwner",
                    "type": "address"
                },
                {
                    "indexed": true,
                    "internalType": "address",
                    "name": "newOwner",
                    "type": "address"
                }
            ],
            "name": "OwnershipTransferred",
            "type": "event"
        },
        {
            "anonymous": false,
            "inputs": [
                {
                    "indexed": true,
                    "internalType": "address",
                    "name": "implementation",
                    "type": "address"
                }
            ],
            "name": "Upgraded",
            "type": "event"
        },
        {
            "inputs": [
                {
                    "internalType": "uint256",
                    "name": "_amount",
                    "type": "uint256"
                }
            ],
            "name": "closeUnitTrust",
            "outputs": [],
            "stateMutability": "payable",
            "type": "function"
        },
        {
            "inputs": [
                {
                    "internalType": "uint256",
                    "name": "_amount",
                    "type": "uint256"
                }
            ],
            "name": "fundWithdraw",
            "outputs": [],
            "stateMutability": "payable",
            "type": "function"
        },
        {
            "inputs": [
                {
                    "internalType": "address",
                    "name": "_investor",
                    "type": "address"
                }
            ],
            "name": "getInvestor",
            "outputs": [
                {
                    "components": [
                        {
                            "internalType": "uint256",
                            "name": "balance",
                            "type": "uint256"
                        },
                        {
                            "internalType": "uint256",
                            "name": "salePrice",
                            "type": "uint256"
                        },
                        {
                            "internalType": "uint16",
                            "name": "ownedUnits",
                            "type": "uint16"
                        },
                        {
                            "internalType": "uint16",
                            "name": "saleUnits",
                            "type": "uint16"
                        },
                        {
                            "internalType": "bool",
                            "name": "authorized",
                            "type": "bool"
                        }
                    ],
                    "internalType": "struct Investor",
                    "name": "",
                    "type": "tuple"
                }
            ],
            "stateMutability": "view",
            "type": "function"
        },
        {
            "inputs": [],
            "name": "getRemainingUnits",
            "outputs": [
                {
                    "internalType": "uint256",
                    "name": "",
                    "type": "uint256"
                }
            ],
            "stateMutability": "view",
            "type": "function"
        },
        {
            "inputs": [],
            "name": "getTotalUnits",
            "outputs": [
                {
                    "internalType": "uint256",
                    "name": "",
                    "type": "uint256"
                }
            ],
            "stateMutability": "view",
            "type": "function"
        },
        {
            "inputs": [],
            "name": "getUnitPrice",
            "outputs": [
                {
                    "internalType": "uint256",
                    "name": "",
                    "type": "uint256"
                }
            ],
            "stateMutability": "view",
            "type": "function"
        },
        {
            "inputs": [],
            "name": "initialize",
            "outputs": [],
            "stateMutability": "nonpayable",
            "type": "function"
        },
        {
            "inputs": [
                {
                    "internalType": "uint256",
                    "name": "_amount",
                    "type": "uint256"
                }
            ],
            "name": "investorWithdraw",
            "outputs": [],
            "stateMutability": "payable",
            "type": "function"
        },
        {
            "inputs": [],
            "name": "owner",
            "outputs": [
                {
                    "internalType": "address",
                    "name": "",
                    "type": "address"
                }
            ],
            "stateMutability": "view",
            "type": "function"
        },
        {
            "inputs": [
                {
                    "internalType": "uint16",
                    "name": "_amount",
                    "type": "uint16"
                },
                {
                    "internalType": "uint256",
                    "name": "_salePrice",
                    "type": "uint256"
                }
            ],
            "name": "postUnit",
            "outputs": [],
            "stateMutability": "nonpayable",
            "type": "function"
        },
        {
            "inputs": [],
            "name": "proxiableUUID",
            "outputs": [
                {
                    "internalType": "bytes32",
                    "name": "",
                    "type": "bytes32"
                }
            ],
            "stateMutability": "view",
            "type": "function"
        },
        {
            "inputs": [
                {
                    "internalType": "uint16",
                    "name": "_amount",
                    "type": "uint16"
                }
            ],
            "name": "purchaseUnit",
            "outputs": [],
            "stateMutability": "payable",
            "type": "function"
        },
        {
            "inputs": [],
            "name": "renounceOwnership",
            "outputs": [],
            "stateMutability": "nonpayable",
            "type": "function"
        },
        {
            "inputs": [
                {
                    "internalType": "address",
                    "name": "newOwner",
                    "type": "address"
                }
            ],
            "name": "transferOwnership",
            "outputs": [],
            "stateMutability": "nonpayable",
            "type": "function"
        },
        {
            "inputs": [
                {
                    "internalType": "address",
                    "name": "_seller",
                    "type": "address"
                },
                {
                    "internalType": "uint16",
                    "name": "_amount",
                    "type": "uint16"
                }
            ],
            "name": "transferUnit",
            "outputs": [],
            "stateMutability": "payable",
            "type": "function"
        },
        {
            "inputs": [
                {
                    "internalType": "address",
                    "name": "newImplementation",
                    "type": "address"
                }
            ],
            "name": "upgradeTo",
            "outputs": [],
            "stateMutability": "nonpayable",
            "type": "function"
        },
        {
            "inputs": [
                {
                    "internalType": "address",
                    "name": "newImplementation",
                    "type": "address"
                },
                {
                    "internalType": "bytes",
                    "name": "data",
                    "type": "bytes"
                }
            ],
            "name": "upgradeToAndCall",
            "outputs": [],
            "stateMutability": "payable",
            "type": "function"
        }
    ],
    "bytecode": "0x60a06040523073ffffffffffffffffffffffffffffffffffffffff1660809073ffffffffffffffffffffffffffffffffffffffff1681525034801561004357600080fd5b50608051612d9361007b600039600081816105ed0152818161067c015281816108ae0152818161093d01526109ed0152612d936000f3fe6080604052600436106100fe5760003560e01c8063715018a61161009557806393e4a0ca1161006457806393e4a0ca146102b1578063a754a702146102dc578063cc57733d14610307578063e6febc9b14610323578063f2fde38b1461033f576100fe565b8063715018a61461021b5780638129fc1c146102325780638da5cb5b146102495780638f35a75e14610274576100fe565b80634ab53c24116100d15780634ab53c241461018f5780634f1ef286146101ab57806352d1902d146101c7578063587de58b146101f2576100fe565b8063012a33aa14610103578063242a37e81461012e578063243f63371461014a5780633659cfe614610166575b600080fd5b34801561010f57600080fd5b50610118610368565b6040516101259190611ca1565b60405180910390f35b61014860048036038101906101439190611d0a565b610375565b005b610164600480360381019061015f9190611d63565b6104f4565b005b34801561017257600080fd5b5061018d60048036038101906101889190611dee565b6105eb565b005b6101a960048036038101906101a49190611d63565b610774565b005b6101c560048036038101906101c09190611f61565b6108ac565b005b3480156101d357600080fd5b506101dc6109e9565b6040516101e99190611fd6565b60405180910390f35b3480156101fe57600080fd5b5061021960048036038101906102149190611ff1565b610aa2565b005b34801561022757600080fd5b50610230610cd2565b005b34801561023e57600080fd5b50610247610d5a565b005b34801561025557600080fd5b5061025e610e29565b60405161026b9190612040565b60405180910390f35b34801561028057600080fd5b5061029b60048036038101906102969190611dee565b610e53565b6040516102a891906120fc565b60405180910390f35b3480156102bd57600080fd5b506102c6610f1e565b6040516102d39190611ca1565b60405180910390f35b3480156102e857600080fd5b506102f1610f2b565b6040516102fe9190611ca1565b60405180910390f35b610321600480360381019061031c9190612117565b610f38565b005b61033d60048036038101906103389190611d63565b6111f5565b005b34801561034b57600080fd5b5061036660048036038101906103619190611dee565b611323565b005b600060c960010154905090565b8061ffff1660c96002015410156103c1576040517f08c379a00000000000000000000000000000000000000000000000000000000081526004016103b8906121b4565b60405180910390fd5b60c960030154670de0b6b3a76400008261ffff166103df9190612217565b67ffffffffffffffff166103f39190612259565b3414610434576040517f08c379a000000000000000000000000000000000000000000000000000000000815260040161042b906122fb565b60405180910390fd5b8060c960050160003373ffffffffffffffffffffffffffffffffffffffff1673ffffffffffffffffffffffffffffffffffffffff16815260200190815260200160002060020160008282829054906101000a900461ffff16610496919061231b565b92506101000a81548161ffff021916908361ffff1602179055508061ffff1660c960020160008282546104c99190612353565b9250508190555060c96003015460c960040160008282546104ea9190612259565b9250508190555050565b6104fc61141b565b73ffffffffffffffffffffffffffffffffffffffff1661051a610e29565b73ffffffffffffffffffffffffffffffffffffffff1614610570576040517f08c379a0000000000000000000000000000000000000000000000000000000008152600401610567906123d3565b60405180910390fd5b600060c9600201549050600060c9600201819055503373ffffffffffffffffffffffffffffffffffffffff166108fc8260c9600001546105b09190612353565b846105bb91906123f3565b9081150290604051600060405180830381858888f193505050501580156105e6573d6000803e3d6000fd5b505050565b7f000000000000000000000000000000000000000000000000000000000000000073ffffffffffffffffffffffffffffffffffffffff163073ffffffffffffffffffffffffffffffffffffffff16141561067a576040517f08c379a0000000000000000000000000000000000000000000000000000000008152600401610671906124bf565b60405180910390fd5b7f000000000000000000000000000000000000000000000000000000000000000073ffffffffffffffffffffffffffffffffffffffff166106b9611423565b73ffffffffffffffffffffffffffffffffffffffff161461070f576040517f08c379a000000000000000000000000000000000000000000000000000000000815260040161070690612551565b60405180910390fd5b6107188161147a565b61077181600067ffffffffffffffff81111561073757610736611e36565b5b6040519080825280601f01601f1916602001820160405280156107695781602001600182028036833780820191505090505b5060006114f9565b50565b61077c61141b565b73ffffffffffffffffffffffffffffffffffffffff1661079a610e29565b73ffffffffffffffffffffffffffffffffffffffff16146107f0576040517f08c379a00000000000000000000000000000000000000000000000000000000081526004016107e7906123d3565b60405180910390fd5b8060c9600401541015610838576040517f08c379a000000000000000000000000000000000000000000000000000000000815260040161082f906125bd565b60405180910390fd5b61084660c960040154611667565b8060c9600401600082825461085b9190612353565b925050819055503373ffffffffffffffffffffffffffffffffffffffff166108fc829081150290604051600060405180830381858888f193505050501580156108a8573d6000803e3d6000fd5b5050565b7f000000000000000000000000000000000000000000000000000000000000000073ffffffffffffffffffffffffffffffffffffffff163073ffffffffffffffffffffffffffffffffffffffff16141561093b576040517f08c379a0000000000000000000000000000000000000000000000000000000008152600401610932906124bf565b60405180910390fd5b7f000000000000000000000000000000000000000000000000000000000000000073ffffffffffffffffffffffffffffffffffffffff1661097a611423565b73ffffffffffffffffffffffffffffffffffffffff16146109d0576040517f08c379a00000000000000000000000000000000000000000000000000000000081526004016109c790612551565b60405180910390fd5b6109d98261147a565b6109e5828260016114f9565b5050565b60007f000000000000000000000000000000000000000000000000000000000000000073ffffffffffffffffffffffffffffffffffffffff163073ffffffffffffffffffffffffffffffffffffffff1614610a79576040517f08c379a0000000000000000000000000000000000000000000000000000000008152600401610a709061264f565b60405180910390fd5b7f360894a13ba1a3210667c828492db98dca3e2076cc3735a920a3ca505d382bbc60001b905090565b8161ffff1660c960050160003373ffffffffffffffffffffffffffffffffffffffff1673ffffffffffffffffffffffffffffffffffffffff16815260200190815260200160002060020160009054906101000a900461ffff1661ffff161015610b40576040517f08c379a0000000000000000000000000000000000000000000000000000000008152600401610b37906126bb565b60405180910390fd5b8161ffff1660c9600201541015610b8c576040517f08c379a0000000000000000000000000000000000000000000000000000000008152600401610b83906121b4565b60405180910390fd5b8160c960050160003373ffffffffffffffffffffffffffffffffffffffff1673ffffffffffffffffffffffffffffffffffffffff16815260200190815260200160002060020160008282829054906101000a900461ffff16610bee91906126db565b92506101000a81548161ffff021916908361ffff1602179055508160c960050160003373ffffffffffffffffffffffffffffffffffffffff1673ffffffffffffffffffffffffffffffffffffffff16815260200190815260200160002060020160028282829054906101000a900461ffff16610c6a919061231b565b92506101000a81548161ffff021916908361ffff1602179055508060c960050160003373ffffffffffffffffffffffffffffffffffffffff1673ffffffffffffffffffffffffffffffffffffffff168152602001908152602001600020600101819055505050565b610cda61141b565b73ffffffffffffffffffffffffffffffffffffffff16610cf8610e29565b73ffffffffffffffffffffffffffffffffffffffff1614610d4e576040517f08c379a0000000000000000000000000000000000000000000000000000000008152600401610d45906123d3565b60405180910390fd5b610d586000611700565b565b6000610d6660016117c6565b90508015610d8a576001600060016101000a81548160ff0219169083151502179055505b610d926118b6565b6103e860c9600001819055506103e860c960020181905550670de0b6b3a764000060c960010181905550662386f26fc1000060c9600301819055508015610e265760008060016101000a81548160ff0219169083151502179055507f7f26b83ff96e1f2b6a682f133852f6798a09c465da95921460cefb38474024986001604051610e1d9190612761565b60405180910390a15b50565b6000609760009054906101000a900473ffffffffffffffffffffffffffffffffffffffff16905090565b610e5b611c4f565b60c960050160008373ffffffffffffffffffffffffffffffffffffffff1673ffffffffffffffffffffffffffffffffffffffff1681526020019081526020016000206040518060a001604052908160008201548152602001600182015481526020016002820160009054906101000a900461ffff1661ffff1661ffff1681526020016002820160029054906101000a900461ffff1661ffff1661ffff1681526020016002820160049054906101000a900460ff1615151515815250509050919050565b600060c960020154905090565b600060c960000154905090565b60c96003015460c960050160008473ffffffffffffffffffffffffffffffffffffffff1673ffffffffffffffffffffffffffffffffffffffff168152602001908152602001600020600101548261ffff16610f9391906123f3565b610f9d9190612259565b3414610fde576040517f08c379a0000000000000000000000000000000000000000000000000000000008152600401610fd5906122fb565b60405180910390fd5b8061ffff1660c960050160008473ffffffffffffffffffffffffffffffffffffffff1673ffffffffffffffffffffffffffffffffffffffff16815260200190815260200160002060020160029054906101000a900461ffff1661ffff16101561107c576040517f08c379a0000000000000000000000000000000000000000000000000000000008152600401611073906127c8565b60405180910390fd5b3460c960050160008473ffffffffffffffffffffffffffffffffffffffff1673ffffffffffffffffffffffffffffffffffffffff16815260200190815260200160002060000160008282546110d19190612259565b925050819055508060c960050160008473ffffffffffffffffffffffffffffffffffffffff1673ffffffffffffffffffffffffffffffffffffffff16815260200190815260200160002060020160028282829054906101000a900461ffff1661113a91906126db565b92506101000a81548161ffff021916908361ffff1602179055508060c960050160003373ffffffffffffffffffffffffffffffffffffffff1673ffffffffffffffffffffffffffffffffffffffff16815260200190815260200160002060020160008282829054906101000a900461ffff166111b6919061231b565b92506101000a81548161ffff021916908361ffff16021790555060c96003015460c960040160008282546111ea9190612259565b925050819055505050565b8060c960050160003373ffffffffffffffffffffffffffffffffffffffff1673ffffffffffffffffffffffffffffffffffffffff16815260200190815260200160002060000154101561127d576040517f08c379a0000000000000000000000000000000000000000000000000000000008152600401611274906125bd565b60405180910390fd5b8060c960050160003373ffffffffffffffffffffffffffffffffffffffff1673ffffffffffffffffffffffffffffffffffffffff16815260200190815260200160002060000160008282546112d29190612353565b925050819055503373ffffffffffffffffffffffffffffffffffffffff166108fc829081150290604051600060405180830381858888f1935050505015801561131f573d6000803e3d6000fd5b5050565b61132b61141b565b73ffffffffffffffffffffffffffffffffffffffff16611349610e29565b73ffffffffffffffffffffffffffffffffffffffff161461139f576040517f08c379a0000000000000000000000000000000000000000000000000000000008152600401611396906123d3565b60405180910390fd5b600073ffffffffffffffffffffffffffffffffffffffff168173ffffffffffffffffffffffffffffffffffffffff16141561140f576040517f08c379a00000000000000000000000000000000000000000000000000000000081526004016114069061285a565b60405180910390fd5b61141881611700565b50565b600033905090565b60006114517f360894a13ba1a3210667c828492db98dca3e2076cc3735a920a3ca505d382bbc60001b61190f565b60000160009054906101000a900473ffffffffffffffffffffffffffffffffffffffff16905090565b61148261141b565b73ffffffffffffffffffffffffffffffffffffffff166114a0610e29565b73ffffffffffffffffffffffffffffffffffffffff16146114f6576040517f08c379a00000000000000000000000000000000000000000000000000000000081526004016114ed906123d3565b60405180910390fd5b50565b6115257f4910fdfa16fed3260ed0e7147f7cc6da11a60208b5b9406d12a635614ffd914360001b611919565b60000160009054906101000a900460ff16156115495761154483611923565b611662565b8273ffffffffffffffffffffffffffffffffffffffff166352d1902d6040518163ffffffff1660e01b8152600401602060405180830381865afa9250505080156115b157506040513d601f19601f820116820180604052508101906115ae91906128a6565b60015b6115f0576040517f08c379a00000000000000000000000000000000000000000000000000000000081526004016115e790612945565b60405180910390fd5b7f360894a13ba1a3210667c828492db98dca3e2076cc3735a920a3ca505d382bbc60001b8114611655576040517f08c379a000000000000000000000000000000000000000000000000000000000815260040161164c906129d7565b60405180910390fd5b506116618383836119dc565b5b505050565b6116fd8160405160240161167b9190611ca1565b6040516020818303038152906040527ff5b1bba9000000000000000000000000000000000000000000000000000000007bffffffffffffffffffffffffffffffffffffffffffffffffffffffff19166020820180517bffffffffffffffffffffffffffffffffffffffffffffffffffffffff8381831617835250505050611a08565b50565b6000609760009054906101000a900473ffffffffffffffffffffffffffffffffffffffff16905081609760006101000a81548173ffffffffffffffffffffffffffffffffffffffff021916908373ffffffffffffffffffffffffffffffffffffffff1602179055508173ffffffffffffffffffffffffffffffffffffffff168173ffffffffffffffffffffffffffffffffffffffff167f8be0079c531659141344cd1fd0a4f28419497f9722a3daafe3b4186f6b6457e060405160405180910390a35050565b60008060019054906101000a900460ff161561183d5760018260ff161480156117f557506117f330611a31565b155b611834576040517f08c379a000000000000000000000000000000000000000000000000000000000815260040161182b90612a69565b60405180910390fd5b600090506118b1565b8160ff1660008054906101000a900460ff1660ff1610611892576040517f08c379a000000000000000000000000000000000000000000000000000000000815260040161188990612a69565b60405180910390fd5b816000806101000a81548160ff021916908360ff160217905550600190505b919050565b600060019054906101000a900460ff16611905576040517f08c379a00000000000000000000000000000000000000000000000000000000081526004016118fc90612afb565b60405180910390fd5b61190d611a54565b565b6000819050919050565b6000819050919050565b61192c81611a31565b61196b576040517f08c379a000000000000000000000000000000000000000000000000000000000815260040161196290612b8d565b60405180910390fd5b806119987f360894a13ba1a3210667c828492db98dca3e2076cc3735a920a3ca505d382bbc60001b61190f565b60000160006101000a81548173ffffffffffffffffffffffffffffffffffffffff021916908373ffffffffffffffffffffffffffffffffffffffff16021790555050565b6119e583611ab5565b6000825111806119f25750805b15611a0357611a018383611b04565b505b505050565b60008151905060006a636f6e736f6c652e6c6f679050602083016000808483855afa5050505050565b6000808273ffffffffffffffffffffffffffffffffffffffff163b119050919050565b600060019054906101000a900460ff16611aa3576040517f08c379a0000000000000000000000000000000000000000000000000000000008152600401611a9a90612afb565b60405180910390fd5b611ab3611aae61141b565b611700565b565b611abe81611923565b8073ffffffffffffffffffffffffffffffffffffffff167fbc7cd75a20ee27fd9adebab32041f755214dbc6bffa90cc0225b39da2e5c2d3b60405160405180910390a250565b6060611b0f83611a31565b611b4e576040517f08c379a0000000000000000000000000000000000000000000000000000000008152600401611b4590612c1f565b60405180910390fd5b6000808473ffffffffffffffffffffffffffffffffffffffff1684604051611b769190612cb9565b600060405180830381855af49150503d8060008114611bb1576040519150601f19603f3d011682016040523d82523d6000602084013e611bb6565b606091505b5091509150611bde8282604051806060016040528060278152602001612d3760279139611be8565b9250505092915050565b60608315611bf857829050611c48565b600083511115611c0b5782518084602001fd5b816040517f08c379a0000000000000000000000000000000000000000000000000000000008152600401611c3f9190612d14565b60405180910390fd5b9392505050565b6040518060a001604052806000815260200160008152602001600061ffff168152602001600061ffff1681526020016000151581525090565b6000819050919050565b611c9b81611c88565b82525050565b6000602082019050611cb66000830184611c92565b92915050565b6000604051905090565b600080fd5b600080fd5b600061ffff82169050919050565b611ce781611cd0565b8114611cf257600080fd5b50565b600081359050611d0481611cde565b92915050565b600060208284031215611d2057611d1f611cc6565b5b6000611d2e84828501611cf5565b91505092915050565b611d4081611c88565b8114611d4b57600080fd5b50565b600081359050611d5d81611d37565b92915050565b600060208284031215611d7957611d78611cc6565b5b6000611d8784828501611d4e565b91505092915050565b600073ffffffffffffffffffffffffffffffffffffffff82169050919050565b6000611dbb82611d90565b9050919050565b611dcb81611db0565b8114611dd657600080fd5b50565b600081359050611de881611dc2565b92915050565b600060208284031215611e0457611e03611cc6565b5b6000611e1284828501611dd9565b91505092915050565b600080fd5b600080fd5b6000601f19601f8301169050919050565b7f4e487b7100000000000000000000000000000000000000000000000000000000600052604160045260246000fd5b611e6e82611e25565b810181811067ffffffffffffffff82111715611e8d57611e8c611e36565b5b80604052505050565b6000611ea0611cbc565b9050611eac8282611e65565b919050565b600067ffffffffffffffff821115611ecc57611ecb611e36565b5b611ed582611e25565b9050602081019050919050565b82818337600083830152505050565b6000611f04611eff84611eb1565b611e96565b905082815260208101848484011115611f2057611f1f611e20565b5b611f2b848285611ee2565b509392505050565b600082601f830112611f4857611f47611e1b565b5b8135611f58848260208601611ef1565b91505092915050565b60008060408385031215611f7857611f77611cc6565b5b6000611f8685828601611dd9565b925050602083013567ffffffffffffffff811115611fa757611fa6611ccb565b5b611fb385828601611f33565b9150509250929050565b6000819050919050565b611fd081611fbd565b82525050565b6000602082019050611feb6000830184611fc7565b92915050565b6000806040838503121561200857612007611cc6565b5b600061201685828601611cf5565b925050602061202785828601611d4e565b9150509250929050565b61203a81611db0565b82525050565b60006020820190506120556000830184612031565b92915050565b61206481611c88565b82525050565b61207381611cd0565b82525050565b60008115159050919050565b61208e81612079565b82525050565b60a0820160008201516120aa600085018261205b565b5060208201516120bd602085018261205b565b5060408201516120d0604085018261206a565b5060608201516120e3606085018261206a565b5060808201516120f66080850182612085565b50505050565b600060a0820190506121116000830184612094565b92915050565b6000806040838503121561212e5761212d611cc6565b5b600061213c85828601611dd9565b925050602061214d85828601611cf5565b9150509250929050565b600082825260208201905092915050565b7f4e6f20656e6f75676820756e6974730000000000000000000000000000000000600082015250565b600061219e600f83612157565b91506121a982612168565b602082019050919050565b600060208201905081810360008301526121cd81612191565b9050919050565b600067ffffffffffffffff82169050919050565b7f4e487b7100000000000000000000000000000000000000000000000000000000600052601160045260246000fd5b6000612222826121d4565b915061222d836121d4565b92508167ffffffffffffffff048311821515161561224e5761224d6121e8565b5b828202905092915050565b600061226482611c88565b915061226f83611c88565b9250827fffffffffffffffffffffffffffffffffffffffffffffffffffffffffffffffff038211156122a4576122a36121e8565b5b828201905092915050565b7f496e636f727265637420616d6f756e742073656e740000000000000000000000600082015250565b60006122e5601583612157565b91506122f0826122af565b602082019050919050565b60006020820190508181036000830152612314816122d8565b9050919050565b600061232682611cd0565b915061233183611cd0565b92508261ffff03821115612348576123476121e8565b5b828201905092915050565b600061235e82611c88565b915061236983611c88565b92508282101561237c5761237b6121e8565b5b828203905092915050565b7f4f776e61626c653a2063616c6c6572206973206e6f7420746865206f776e6572600082015250565b60006123bd602083612157565b91506123c882612387565b602082019050919050565b600060208201905081810360008301526123ec816123b0565b9050919050565b60006123fe82611c88565b915061240983611c88565b9250817fffffffffffffffffffffffffffffffffffffffffffffffffffffffffffffffff0483118215151615612442576124416121e8565b5b828202905092915050565b7f46756e6374696f6e206d7573742062652063616c6c6564207468726f7567682060008201527f64656c656761746563616c6c0000000000000000000000000000000000000000602082015250565b60006124a9602c83612157565b91506124b48261244d565b604082019050919050565b600060208201905081810360008301526124d88161249c565b9050919050565b7f46756e6374696f6e206d7573742062652063616c6c6564207468726f7567682060008201527f6163746976652070726f78790000000000000000000000000000000000000000602082015250565b600061253b602c83612157565b9150612546826124df565b604082019050919050565b6000602082019050818103600083015261256a8161252e565b9050919050565b7f4e6f7420656e6f7567682066756e647300000000000000000000000000000000600082015250565b60006125a7601083612157565b91506125b282612571565b602082019050919050565b600060208201905081810360008301526125d68161259a565b9050919050565b7f555550535570677261646561626c653a206d757374206e6f742062652063616c60008201527f6c6564207468726f7567682064656c656761746563616c6c0000000000000000602082015250565b6000612639603883612157565b9150612644826125dd565b604082019050919050565b600060208201905081810360008301526126688161262c565b9050919050565b7f4e6f7420656e6f75676820756e69747300000000000000000000000000000000600082015250565b60006126a5601083612157565b91506126b08261266f565b602082019050919050565b600060208201905081810360008301526126d481612698565b9050919050565b60006126e682611cd0565b91506126f183611cd0565b925082821015612704576127036121e8565b5b828203905092915050565b6000819050919050565b600060ff82169050919050565b6000819050919050565b600061274b6127466127418461270f565b612726565b612719565b9050919050565b61275b81612730565b82525050565b60006020820190506127766000830184612752565b92915050565b7f4e6f7420656e6f75676820756e69747320666f722073616c6500000000000000600082015250565b60006127b2601983612157565b91506127bd8261277c565b602082019050919050565b600060208201905081810360008301526127e1816127a5565b9050919050565b7f4f776e61626c653a206e6577206f776e657220697320746865207a65726f206160008201527f6464726573730000000000000000000000000000000000000000000000000000602082015250565b6000612844602683612157565b915061284f826127e8565b604082019050919050565b6000602082019050818103600083015261287381612837565b9050919050565b61288381611fbd565b811461288e57600080fd5b50565b6000815190506128a08161287a565b92915050565b6000602082840312156128bc576128bb611cc6565b5b60006128ca84828501612891565b91505092915050565b7f45524331393637557067726164653a206e657720696d706c656d656e7461746960008201527f6f6e206973206e6f742055555053000000000000000000000000000000000000602082015250565b600061292f602e83612157565b915061293a826128d3565b604082019050919050565b6000602082019050818103600083015261295e81612922565b9050919050565b7f45524331393637557067726164653a20756e737570706f727465642070726f7860008201527f6961626c65555549440000000000000000000000000000000000000000000000602082015250565b60006129c1602983612157565b91506129cc82612965565b604082019050919050565b600060208201905081810360008301526129f0816129b4565b9050919050565b7f496e697469616c697a61626c653a20636f6e747261637420697320616c72656160008201527f647920696e697469616c697a6564000000000000000000000000000000000000602082015250565b6000612a53602e83612157565b9150612a5e826129f7565b604082019050919050565b60006020820190508181036000830152612a8281612a46565b9050919050565b7f496e697469616c697a61626c653a20636f6e7472616374206973206e6f74206960008201527f6e697469616c697a696e67000000000000000000000000000000000000000000602082015250565b6000612ae5602b83612157565b9150612af082612a89565b604082019050919050565b60006020820190508181036000830152612b1481612ad8565b9050919050565b7f455243313936373a206e657720696d706c656d656e746174696f6e206973206e60008201527f6f74206120636f6e747261637400000000000000000000000000000000000000602082015250565b6000612b77602d83612157565b9150612b8282612b1b565b604082019050919050565b60006020820190508181036000830152612ba681612b6a565b9050919050565b7f416464726573733a2064656c65676174652063616c6c20746f206e6f6e2d636f60008201527f6e74726163740000000000000000000000000000000000000000000000000000602082015250565b6000612c09602683612157565b9150612c1482612bad565b604082019050919050565b60006020820190508181036000830152612c3881612bfc565b9050919050565b600081519050919050565b600081905092915050565b60005b83811015612c73578082015181840152602081019050612c58565b83811115612c82576000848401525b50505050565b6000612c9382612c3f565b612c9d8185612c4a565b9350612cad818560208601612c55565b80840191505092915050565b6000612cc58284612c88565b915081905092915050565b600081519050919050565b6000612ce682612cd0565b612cf08185612157565b9350612d00818560208601612c55565b612d0981611e25565b840191505092915050565b60006020820190508181036000830152612d2e8184612cdb565b90509291505056fe416464726573733a206c6f772d6c6576656c2064656c65676174652063616c6c206661696c6564a2646970667358221220743251ef08d540dd5ad8415f1219ce36527e6dbcf2eaf64370095acb9c95bc1664736f6c634300080a0033",
    "linkReferences": {},
    "deployedLinkReferences": {}
}