{
  "_format": "hh-sol-artifact-1",
  "contractName": "Test",
  "sourceName": "contracts/Test.sol",
  "abi": [
    {
      "inputs": [],
      "name": "addBalance",
      "outputs": [],
      "stateMutability": "payable",
      "type": "function"
    },
    {
      "inputs": [],
      "name": "getBalance",
      "outputs": [
        {
          "internalType": "uint256",
          "name": "",
          "type": "uint256"
        }
      ],
      "stateMutability": "view",
      "type": "function"
    },
    {
      "inputs": [],
      "name": "getNumber",
      "outputs": [
        {
          "internalType": "uint256",
          "name": "",
          "type": "uint256"
        }
      ],
      "stateMutability": "view",
      "type": "function"
    },
    {
      "inputs": [],
      "name": "hello",
      "outputs": [
        {
          "internalType": "string",
          "name": "",
          "type": "string"
        }
      ],
      "stateMutability": "pure",
      "type": "function"
    },
    {
      "inputs": [
        {
          "internalType": "uint256",
          "name": "_a",
          "type": "uint256"
        },
        {
          "internalType": "uint256",
          "name": "_b",
          "type": "uint256"
        }
      ],
      "name": "returnSum",
      "outputs": [
        {
          "internalType": "uint256",
          "name": "",
          "type": "uint256"
        }
      ],
      "stateMutability": "pure",
      "type": "function"
    },
    {
      "inputs": [
        {
          "internalType": "uint256",
          "name": "_number",
          "type": "uint256"
        }
      ],
      "name": "storeNumber",
      "outputs": [],
      "stateMutability": "nonpayable",
      "type": "function"
    },
    {
      "inputs": [
        {
          "internalType": "uint256",
          "name": "amount",
          "type": "uint256"
        }
      ],
      "name": "withdrawBalance",
      "outputs": [],
      "stateMutability": "payable",
      "type": "function"
    }
  ],
  "bytecode": "0x608060405234801561001057600080fd5b506105b0806100206000396000f3fe6080604052600436106100705760003560e01c8063b63394181161004e578063b6339418146100d5578063b780111c146100fe578063da76d5cd1461013b578063f2c9ecd81461015757610070565b806312065fe01461007557806319ff1d21146100a0578063b163cc38146100cb575b600080fd5b34801561008157600080fd5b5061008a610182565b604051610097919061034d565b60405180910390f35b3480156100ac57600080fd5b506100b56101cb565b6040516100c29190610401565b60405180910390f35b6100d3610208565b005b3480156100e157600080fd5b506100fc60048036038101906100f79190610454565b610263565b005b34801561010a57600080fd5b5061012560048036038101906101209190610481565b61026f565b604051610132919061034d565b60405180910390f35b61015560048036038101906101509190610454565b610285565b005b34801561016357600080fd5b5061016c610328565b604051610179919061034d565b60405180910390f35b60008060020160003373ffffffffffffffffffffffffffffffffffffffff1673ffffffffffffffffffffffffffffffffffffffff16815260200190815260200160002054905090565b60606040518060400160405280600581526020017f48656c6c6f000000000000000000000000000000000000000000000000000000815250905090565b34600060020160003373ffffffffffffffffffffffffffffffffffffffff1673ffffffffffffffffffffffffffffffffffffffff168152602001908152602001600020600082825461025a91906104f0565b92505081905550565b80600080018190555050565b6000818361027d91906104f0565b905092915050565b80600060020160003373ffffffffffffffffffffffffffffffffffffffff1673ffffffffffffffffffffffffffffffffffffffff16815260200190815260200160002060008282546102d79190610546565b925050819055503373ffffffffffffffffffffffffffffffffffffffff166108fc829081150290604051600060405180830381858888f19350505050158015610324573d6000803e3d6000fd5b5050565b60008060000154905090565b6000819050919050565b61034781610334565b82525050565b6000602082019050610362600083018461033e565b92915050565b600081519050919050565b600082825260208201905092915050565b60005b838110156103a2578082015181840152602081019050610387565b838111156103b1576000848401525b50505050565b6000601f19601f8301169050919050565b60006103d382610368565b6103dd8185610373565b93506103ed818560208601610384565b6103f6816103b7565b840191505092915050565b6000602082019050818103600083015261041b81846103c8565b905092915050565b600080fd5b61043181610334565b811461043c57600080fd5b50565b60008135905061044e81610428565b92915050565b60006020828403121561046a57610469610423565b5b60006104788482850161043f565b91505092915050565b6000806040838503121561049857610497610423565b5b60006104a68582860161043f565b92505060206104b78582860161043f565b9150509250929050565b7f4e487b7100000000000000000000000000000000000000000000000000000000600052601160045260246000fd5b60006104fb82610334565b915061050683610334565b9250827fffffffffffffffffffffffffffffffffffffffffffffffffffffffffffffffff0382111561053b5761053a6104c1565b5b828201905092915050565b600061055182610334565b915061055c83610334565b92508282101561056f5761056e6104c1565b5b82820390509291505056fea2646970667358221220cbd6019a6e5c401d735b13e99c15ad86916dc7cc4ed37762625868c38dd1516264736f6c63430008090033",
  "linkReferences": {},
  "deployedLinkReferences": {}
}